{
  "contractName": "AavePool",
  "abi": [
    {
      "inputs": [
        {
          "internalType": "address",
          "name": "pod",
          "type": "address"
        },
        {
          "internalType": "uint256",
          "name": "amount",
          "type": "uint256"
        },
        {
          "internalType": "bytes",
          "name": "data",
          "type": "bytes"
        }
      ],
      "name": "depositPod",
      "outputs": [],
      "stateMutability": "nonpayable",
      "type": "function"
    },
    {
      "inputs": [],
      "name": "getDaiPod",
      "outputs": [
        {
          "internalType": "address",
          "name": "daiPod",
          "type": "address"
        }
      ],
      "stateMutability": "pure",
      "type": "function"
    },
    {
      "inputs": [],
      "name": "getIntermediate",
      "outputs": [
        {
          "internalType": "address",
          "name": "secondary",
          "type": "address"
        }
      ],
      "stateMutability": "pure",
      "type": "function"
    },
    {
      "inputs": [],
      "name": "getLendingPool",
      "outputs": [
        {
          "internalType": "address",
          "name": "lendingpool",
          "type": "address"
        }
      ],
      "stateMutability": "pure",
      "type": "function"
    },
    {
      "inputs": [],
      "name": "getUsdcPod",
      "outputs": [
        {
          "internalType": "address",
          "name": "usdcPod",
          "type": "address"
        }
      ],
      "stateMutability": "pure",
      "type": "function"
    },
    {
      "inputs": [
        {
          "internalType": "address",
          "name": "token",
          "type": "address"
        },
        {
          "internalType": "uint256",
          "name": "depositAmt",
          "type": "uint256"
        },
        {
          "internalType": "address",
          "name": "pod",
          "type": "address"
        },
        {
          "internalType": "bytes",
          "name": "data",
          "type": "bytes"
        }
      ],
      "name": "investInPod",
      "outputs": [
        {
          "internalType": "bool",
          "name": "",
          "type": "bool"
        }
      ],
      "stateMutability": "nonpayable",
      "type": "function"
    }
  ],
  "bytecode": "0x608060405234801561001057600080fd5b506107ca806100206000396000f3fe608060405234801561001057600080fd5b50600436106100625760003560e01c80630261bf8b1461006757806342b2293e146100b15780634314ed9d14610196578063a955450a146101e0578063c671eea41461022a578063f1d29f5514610274575b600080fd5b61006f610391565b604051808273ffffffffffffffffffffffffffffffffffffffff1673ffffffffffffffffffffffffffffffffffffffff16815260200191505060405180910390f35b610194600480360360608110156100c757600080fd5b81019080803573ffffffffffffffffffffffffffffffffffffffff169060200190929190803590602001909291908035906020019064010000000081111561010e57600080fd5b82018360208201111561012057600080fd5b8035906020019184600183028401116401000000008311171561014257600080fd5b91908080601f016020809104026020016040519081016040528093929190818152602001838380828437600081840152601f19601f8201169050808301925050505050505091929192905050506103ad565b005b61019e61048a565b604051808273ffffffffffffffffffffffffffffffffffffffff1673ffffffffffffffffffffffffffffffffffffffff16815260200191505060405180910390f35b6101e86104a6565b604051808273ffffffffffffffffffffffffffffffffffffffff1673ffffffffffffffffffffffffffffffffffffffff16815260200191505060405180910390f35b6102326104c2565b604051808273ffffffffffffffffffffffffffffffffffffffff1673ffffffffffffffffffffffffffffffffffffffff16815260200191505060405180910390f35b6103776004803603608081101561028a57600080fd5b81019080803573ffffffffffffffffffffffffffffffffffffffff16906020019092919080359060200190929190803573ffffffffffffffffffffffffffffffffffffffff169060200190929190803590602001906401000000008111156102f157600080fd5b82018360208201111561030357600080fd5b8035906020019184600183028401116401000000008311171561032557600080fd5b91908080601f016020809104026020016040519081016040528093929190818152602001838380828437600081840152601f19601f8201169050808301925050505050505091929192905050506104de565b604051808215151515815260200191505060405180910390f35b600073398ec7346dcd622edc5ae82352f02be94c62d119905090565b8273ffffffffffffffffffffffffffffffffffffffff16635d30351983836040518363ffffffff1660e01b81526004018083815260200180602001828103825283818151815260200191508051906020019080838360005b83811015610420578082015181840152602081019050610405565b50505050905090810190601f16801561044d5780820380516001836020036101000a031916815260200191505b509350505050600060405180830381600087803b15801561046d57600080fd5b505af1158015610481573d6000803e3d6000fd5b50505050505050565b6000736f5587e191c8b222f634c78111f97c4851663ba4905090565b6000739f4c5d8d9be360df36e67f52ae55c1b137b4d0c4905090565b6000736f5587e191c8b222f634c78111f97c4851663ba4905090565b60006104e8610391565b73ffffffffffffffffffffffffffffffffffffffff1663d2d0e0666000878760006040518563ffffffff1660e01b8152600401808473ffffffffffffffffffffffffffffffffffffffff1673ffffffffffffffffffffffffffffffffffffffff1681526020018381526020018261ffff16815260200193505050506000604051808303818588803b15801561057c57600080fd5b505af1158015610590573d6000803e3d6000fd5b5050505050600061059f610391565b73ffffffffffffffffffffffffffffffffffffffff166335ea6a75336040518263ffffffff1660e01b8152600401808273ffffffffffffffffffffffffffffffffffffffff1673ffffffffffffffffffffffffffffffffffffffff1681526020019150506101a06040518083038186803b15801561061c57600080fd5b505afa158015610630573d6000803e3d6000fd5b505050506040513d6101a081101561064757600080fd5b8101908080519060200190929190805190602001909291908051906020019092919080519060200190929190805190602001909291908051906020019092919080519060200190929190805190602001909291908051906020019092919080519060200190929190805190602001909291908051906020019092919080519060200190929190505050509b5050505050505050505050508073ffffffffffffffffffffffffffffffffffffffff16630e49072d61070261048a565b6040518263ffffffff1660e01b8152600401808273ffffffffffffffffffffffffffffffffffffffff1673ffffffffffffffffffffffffffffffffffffffff168152602001915050600060405180830381600087803b15801561076457600080fd5b505af1158015610778573d6000803e3d6000fd5b505050506107878486856103ad565b600191505094935050505056fea264697066735822122059e8779f21a65dba23e7ee30955f0a432df04914794e914725f4303ea2e3f5ff64736f6c63430006020033",
  "source": "pragma solidity ^0.6.0;\r\n\r\nimport \"./interfaces/IPod.sol\";\r\nimport \"./interfaces/IPool.sol\";\r\nimport \"./interfaces/Ilendingpool.sol\";\r\nimport \"./interfaces/IAtoken.sol\";\r\n\r\ncontract DSMath {\r\n\r\n    function add(uint x, uint y) internal pure returns (uint z) {\r\n        require((z = x + y) >= x, \"math-not-safe\");\r\n    }\r\n\r\n    function sub(uint x, uint y) internal pure returns (uint z) {\r\n        z = x - y <= x ? x - y : 0;\r\n    }\r\n\r\n    function mul(uint x, uint y) internal pure returns (uint z) {\r\n        require(y == 0 || (z = x * y) / y == x, \"math-not-safe\");\r\n    }\r\n\r\n    uint constant WAD = 10 ** 18;\r\n\r\n    function wmul(uint x, uint y) internal pure returns (uint z) {\r\n        z = add(mul(x, y), WAD / 2) / WAD;\r\n    }\r\n\r\n    function wdiv(uint x, uint y) internal pure returns (uint z) {\r\n        z = add(mul(x, WAD), y / 2) / y;\r\n    }\r\n\r\n}\r\n\r\n\r\ncontract Helper is DSMath {\r\n     /**\r\n     * @dev get Lending Pool address\r\n     */\r\n    function getLendingPool() public pure returns (address lendingpool) {\r\n        lendingpool = 0x398eC7346DcD622eDc5ae82352F02bE94C62d119;\r\n    }\r\n    /**\r\n     * @dev get dai pod contract address\r\n     */\r\n    function getDaiPod() public pure returns (address daiPod) {\r\n        daiPod = 0x9F4C5D8d9BE360DF36E67F52aE55C1B137B4d0C4;\r\n    }\r\n    /**\r\n     * @dev get usdc pod contract address\r\n     */\r\n    function getUsdcPod() public pure returns (address usdcPod) {\r\n        usdcPod = 0x6F5587E191C8b222F634C78111F97c4851663ba4;\r\n    }\r\n     /**\r\n     * @dev get intermediatecontract contract address to which we will redirect interest to\r\n     */\r\n    function getIntermediate() public pure returns (address secondary) {\r\n        // dummy address used will have to deploy and replace the actual address\r\n        secondary = 0x6F5587E191C8b222F634C78111F97c4851663ba4;\r\n    }\r\n}\r\n\r\n\r\ninterface IERC20 {\r\n    /**\r\n     * @dev Returns the amount of tokens in existence.\r\n     */\r\n    function totalSupply() external view returns (uint256);\r\n\r\n    /**\r\n     * @dev Returns the amount of tokens owned by `account`.\r\n     */\r\n    function balanceOf(address account) external view returns (uint256);\r\n\r\n    /**\r\n     * @dev Moves `amount` tokens from the caller's account to `recipient`.\r\n     *\r\n     * Returns a boolean value indicating whether the operation succeeded.\r\n     *\r\n     * Emits a {Transfer} event.\r\n     */\r\n    function transfer(address recipient, uint256 amount) external returns (bool);\r\n\r\n    /**\r\n     * @dev Returns the remaining number of tokens that `spender` will be\r\n     * allowed to spend on behalf of `owner` through {transferFrom}. This is\r\n     * zero by default.\r\n     *\r\n     * This value changes when {approve} or {transferFrom} are called.\r\n     */\r\n    function allowance(address owner, address spender) external view returns (uint256);\r\n\r\n    /**\r\n     * @dev Sets `amount` as the allowance of `spender` over the caller's tokens.\r\n     *\r\n     * Returns a boolean value indicating whether the operation succeeded.\r\n     *\r\n     * IMPORTANT: Beware that changing an allowance with this method brings the risk\r\n     * that someone may use both the old and the new allowance by unfortunate\r\n     * transaction ordering. One possible solution to mitigate this race\r\n     * condition is to first reduce the spender's allowance to 0 and set the\r\n     * desired value afterwards:\r\n     * https://github.com/ethereum/EIPs/issues/20#issuecomment-263524729\r\n     *\r\n     * Emits an {Approval} event.\r\n     */\r\n    function approve(address spender, uint amount) external returns (bool);\r\n\r\n    /**\r\n     * @dev Moves `amount` tokens from `sender` to `recipient` using the\r\n     * allowance mechanism. `amount` is then deducted from the caller's\r\n     * allowance.\r\n     *\r\n     * Returns a boolean value indicating whether the operation succeeded.\r\n     *\r\n     * Emits a {Transfer} event.\r\n     */\r\n    function transferFrom(address sender, address recipient, uint256 amount) external returns (bool);\r\n\r\n    /**\r\n     * @dev Emitted when `value` tokens are moved from one account (`from`) to\r\n     * another (`to`).\r\n     *\r\n     * Note that `value` may be zero.\r\n     */\r\n    event Transfer(address indexed from, address indexed to, uint256 value);\r\n\r\n    /**\r\n     * @dev Emitted when the allowance of a `spender` for an `owner` is set by\r\n     * a call to {approve}. `value` is the new allowance.\r\n     */\r\n    event Approval(address indexed owner, address indexed spender, uint256 value);\r\n}\r\n\r\ncontract InvestPoolTogether  {\r\n    function depositPod(address pod, uint amount, bytes memory data) public {\r\n        PodInterface(pod).deposit(amount, data);\r\n    }\r\n}\r\n\r\ncontract AavePool is InvestPoolTogether, Helper {\r\n     /**\r\n     * @dev Pool Together Pod Entering Functionality through Redirecting Interest from Aave\r\n     * @param token - token to deposit\r\n     * @param depositAmt - amount to deposit on AAVE\r\n     */\r\n    function investInPod(\r\n        address token,\r\n        uint depositAmt,\r\n        address pod,\r\n        bytes memory data\r\n        ) public\r\n        returns(bool)\r\n        {\r\n            // Depositing Token on Aave to get AToken\r\n            LendingPoolInterface(getLendingPool()).deposit.value(0)(token, depositAmt, 0);\r\n            // Fetching the ATOKEN Address from the reserve address\r\n            (, , , , , , , , , , , address atoken,) = LendingPoolInterface(getLendingPool()).getReserveData(msg.sender);\r\n            // Redirtecting Interest to Enter into a Pool\r\n            // Right Now Using Using a sample address in getIntermediate but we will basically first deploy InvestPoolTogether and put that address in there\r\n            ATokenInterface(atoken).redirectInterestStream(getIntermediate());\r\n            depositPod(pod, depositAmt, data);\r\n            return true;\r\n        }\r\n}\r\n",
  "sourcePath": "C:\\Users\\lazypuppet\\ethereum projects\\snaketh4x0r\\AAVE-Pool-Together\\ethereum\\contracts\\AavePool.sol",
  "compiler": {
    "name": "solc",
    "version": "0.6.2+commit.bacdbe57.Emscripten.clang"
  },
  "schemaVersion": "3.1.0",
  "updatedAt": "2020-05-21T08:32:28.055Z",
  "devdoc": {
    "methods": {
      "getDaiPod()": {
        "details": "get dai pod contract address"
      },
      "getIntermediate()": {
        "details": "get intermediatecontract contract address to which we will redirect interest to"
      },
      "getLendingPool()": {
        "details": "get Lending Pool address"
      },
      "getUsdcPod()": {
        "details": "get usdc pod contract address"
      },
      "investInPod(address,uint256,address,bytes)": {
        "details": "Pool Together Pod Entering Functionality through Redirecting Interest from Aave",
        "params": {
          "depositAmt": "- amount to deposit on AAVE",
          "token": "- token to deposit"
        }
      }
    }
  },
  "userdoc": {
    "methods": {}
  }
}