{
  "contractName": "AavePool",
  "abi": [
    {
      "anonymous": false,
      "inputs": [
        {
          "indexed": true,
          "internalType": "address",
          "name": "thisAddress",
          "type": "address"
        }
      ],
      "name": "Initialized",
      "type": "event"
    },
    {
      "anonymous": false,
      "inputs": [
        {
          "indexed": true,
          "internalType": "address",
          "name": "previousOwner",
          "type": "address"
        },
        {
          "indexed": true,
          "internalType": "address",
          "name": "newOwner",
          "type": "address"
        }
      ],
      "name": "OwnershipTransferred",
      "type": "event"
    },
    {
      "inputs": [],
      "name": "aToken",
      "outputs": [
        {
          "internalType": "address",
          "name": "",
          "type": "address"
        }
      ],
      "stateMutability": "view",
      "type": "function"
    },
    {
      "inputs": [],
      "name": "getPod",
      "outputs": [
        {
          "internalType": "address",
          "name": "pod",
          "type": "address"
        }
      ],
      "stateMutability": "pure",
      "type": "function"
    },
    {
      "inputs": [],
      "name": "lendingPool",
      "outputs": [
        {
          "internalType": "address",
          "name": "",
          "type": "address"
        }
      ],
      "stateMutability": "view",
      "type": "function"
    },
    {
      "inputs": [],
      "name": "owner",
      "outputs": [
        {
          "internalType": "address",
          "name": "",
          "type": "address"
        }
      ],
      "stateMutability": "view",
      "type": "function"
    },
    {
      "inputs": [],
      "name": "renounceOwnership",
      "outputs": [],
      "stateMutability": "nonpayable",
      "type": "function"
    },
    {
      "inputs": [
        {
          "internalType": "address",
          "name": "newOwner",
          "type": "address"
        }
      ],
      "name": "transferOwnership",
      "outputs": [],
      "stateMutability": "nonpayable",
      "type": "function"
    },
    {
      "inputs": [],
      "name": "underlyingAsset",
      "outputs": [
        {
          "internalType": "address",
          "name": "",
          "type": "address"
        }
      ],
      "stateMutability": "view",
      "type": "function"
    },
    {
      "inputs": [
        {
          "internalType": "address",
          "name": "_recipient",
          "type": "address"
        },
        {
          "internalType": "address",
          "name": "_admin",
          "type": "address"
        }
      ],
      "name": "initialize",
      "outputs": [],
      "stateMutability": "nonpayable",
      "type": "function"
    },
    {
      "inputs": [],
      "name": "invest",
      "outputs": [
        {
          "internalType": "bool",
          "name": "",
          "type": "bool"
        }
      ],
      "stateMutability": "nonpayable",
      "type": "function"
    },
    {
      "inputs": [],
      "name": "redeem",
      "outputs": [
        {
          "internalType": "bool",
          "name": "",
          "type": "bool"
        }
      ],
      "stateMutability": "nonpayable",
      "type": "function"
    }
  ],
  "bytecode": "0x6080604052734f96fe3b7a6cf9725f59d353f723c1bdb64ca6aa603460006101000a81548173ffffffffffffffffffffffffffffffffffffffff021916908373ffffffffffffffffffffffffffffffffffffffff160217905550734f96fe3b7a6cf9725f59d353f723c1bdb64ca6aa603560006101000a81548173ffffffffffffffffffffffffffffffffffffffff021916908373ffffffffffffffffffffffffffffffffffffffff160217905550734f96fe3b7a6cf9725f59d353f723c1bdb64ca6aa603660006101000a81548173ffffffffffffffffffffffffffffffffffffffff021916908373ffffffffffffffffffffffffffffffffffffffff16021790555060006101136101b760201b60201c565b905080603360006101000a81548173ffffffffffffffffffffffffffffffffffffffff021916908373ffffffffffffffffffffffffffffffffffffffff1602179055508073ffffffffffffffffffffffffffffffffffffffff16600073ffffffffffffffffffffffffffffffffffffffff167f8be0079c531659141344cd1fd0a4f28419497f9722a3daafe3b4186f6b6457e060405160405180910390a3506101bf565b600033905090565b611642806101ce6000396000f3fe608060405234801561001057600080fd5b506004361061009e5760003560e01c8063a59a997311610066578063a59a9973146101ef578063be040fb014610239578063c8e11cac1461025b578063e8b5e51f146102a5578063f2fde38b146102c75761009e565b8063485cc955146100a3578063715018a6146101075780637158da7c146101115780638da5cb5b1461015b578063a0c1f15e146101a5575b600080fd5b610105600480360360408110156100b957600080fd5b81019080803573ffffffffffffffffffffffffffffffffffffffff169060200190929190803573ffffffffffffffffffffffffffffffffffffffff16906020019092919050505061030b565b005b61010f610455565b005b6101196105e0565b604051808273ffffffffffffffffffffffffffffffffffffffff1673ffffffffffffffffffffffffffffffffffffffff16815260200191505060405180910390f35b610163610606565b604051808273ffffffffffffffffffffffffffffffffffffffff1673ffffffffffffffffffffffffffffffffffffffff16815260200191505060405180910390f35b6101ad610630565b604051808273ffffffffffffffffffffffffffffffffffffffff1673ffffffffffffffffffffffffffffffffffffffff16815260200191505060405180910390f35b6101f7610656565b604051808273ffffffffffffffffffffffffffffffffffffffff1673ffffffffffffffffffffffffffffffffffffffff16815260200191505060405180910390f35b61024161067c565b604051808215151515815260200191505060405180910390f35b610263610c37565b604051808273ffffffffffffffffffffffffffffffffffffffff1673ffffffffffffffffffffffffffffffffffffffff16815260200191505060405180910390f35b6102ad610c53565b604051808215151515815260200191505060405180910390f35b610309600480360360208110156102dd57600080fd5b81019080803573ffffffffffffffffffffffffffffffffffffffff16906020019092919050505061135a565b005b600060019054906101000a900460ff168061032a575061032961156a565b5b8061034157506000809054906101000a900460ff16155b610396576040517f08c379a000000000000000000000000000000000000000000000000000000000815260040180806020018281038252602e8152602001806115df602e913960400191505060405180910390fd5b60008060019054906101000a900460ff1615905080156103e6576001600060016101000a81548160ff02191690831515021790555060016000806101000a81548160ff0219169083151502179055505b3073ffffffffffffffffffffffffffffffffffffffff167f908408e307fc569b417f6cbec5d5a06f44a0a505ac0479b47d421a4b2fd6a1e660405160405180910390a260008290505080156104505760008060016101000a81548160ff0219169083151502179055505b505050565b61045d611581565b73ffffffffffffffffffffffffffffffffffffffff16603360009054906101000a900473ffffffffffffffffffffffffffffffffffffffff1673ffffffffffffffffffffffffffffffffffffffff161461051f576040517f08c379a00000000000000000000000000000000000000000000000000000000081526004018080602001828103825260208152602001807f4f776e61626c653a2063616c6c6572206973206e6f7420746865206f776e657281525060200191505060405180910390fd5b600073ffffffffffffffffffffffffffffffffffffffff16603360009054906101000a900473ffffffffffffffffffffffffffffffffffffffff1673ffffffffffffffffffffffffffffffffffffffff167f8be0079c531659141344cd1fd0a4f28419497f9722a3daafe3b4186f6b6457e060405160405180910390a36000603360006101000a81548173ffffffffffffffffffffffffffffffffffffffff021916908373ffffffffffffffffffffffffffffffffffffffff160217905550565b603660009054906101000a900473ffffffffffffffffffffffffffffffffffffffff1681565b6000603360009054906101000a900473ffffffffffffffffffffffffffffffffffffffff16905090565b603460009054906101000a900473ffffffffffffffffffffffffffffffffffffffff1681565b603560009054906101000a900473ffffffffffffffffffffffffffffffffffffffff1681565b6000610686611581565b73ffffffffffffffffffffffffffffffffffffffff16603360009054906101000a900473ffffffffffffffffffffffffffffffffffffffff1673ffffffffffffffffffffffffffffffffffffffff1614610748576040517f08c379a00000000000000000000000000000000000000000000000000000000081526004018080602001828103825260208152602001807f4f776e61626c653a2063616c6c6572206973206e6f7420746865206f776e657281525060200191505060405180910390fd5b6000610752610c37565b73ffffffffffffffffffffffffffffffffffffffff16633af9e669336040518263ffffffff1660e01b8152600401808273ffffffffffffffffffffffffffffffffffffffff1673ffffffffffffffffffffffffffffffffffffffff16815260200191505060206040518083038186803b1580156107ce57600080fd5b505afa1580156107e2573d6000803e3d6000fd5b505050506040513d60208110156107f857600080fd5b810190808051906020019092919050505090506000811415610865576040517f08c379a000000000000000000000000000000000000000000000000000000000815260040180806020018281038252602f8152602001806115b0602f913960400191505060405180910390fd5b603660009054906101000a900473ffffffffffffffffffffffffffffffffffffffff1673ffffffffffffffffffffffffffffffffffffffff1663095ea7b36108ab610c37565b836040518363ffffffff1660e01b8152600401808373ffffffffffffffffffffffffffffffffffffffff1673ffffffffffffffffffffffffffffffffffffffff16815260200182815260200192505050602060405180830381600087803b15801561091557600080fd5b505af1158015610929573d6000803e3d6000fd5b505050506040513d602081101561093f57600080fd5b81019080805190602001909291905050505060606040518060400160405280601281526020017f52656465656d696e672066726f6d20506f6400000000000000000000000000008152509050610993610c37565b73ffffffffffffffffffffffffffffffffffffffff1663e77c646d83836040518363ffffffff1660e01b81526004018083815260200180602001828103825283818151815260200191508051906020019080838360005b83811015610a055780820151818401526020810190506109ea565b50505050905090810190601f168015610a325780820380516001836020036101000a031916815260200191505b509350505050600060405180830381600087803b158015610a5257600080fd5b505af1158015610a66573d6000803e3d6000fd5b505050506000603660009054906101000a900473ffffffffffffffffffffffffffffffffffffffff1673ffffffffffffffffffffffffffffffffffffffff166370a08231306040518263ffffffff1660e01b8152600401808273ffffffffffffffffffffffffffffffffffffffff1673ffffffffffffffffffffffffffffffffffffffff16815260200191505060206040518083038186803b158015610b0b57600080fd5b505afa158015610b1f573d6000803e3d6000fd5b505050506040513d6020811015610b3557600080fd5b81019080805190602001909291905050509050603660009054906101000a900473ffffffffffffffffffffffffffffffffffffffff1673ffffffffffffffffffffffffffffffffffffffff1663a9059cbb33836040518363ffffffff1660e01b8152600401808373ffffffffffffffffffffffffffffffffffffffff1673ffffffffffffffffffffffffffffffffffffffff16815260200182815260200192505050602060405180830381600087803b158015610bf157600080fd5b505af1158015610c05573d6000803e3d6000fd5b505050506040513d6020811015610c1b57600080fd5b8101908080519060200190929190505050506001935050505090565b600073395fcb67ff8fdf5b9e2aeecc02ef7a8de87a6677905090565b6000603560009054906101000a900473ffffffffffffffffffffffffffffffffffffffff1673ffffffffffffffffffffffffffffffffffffffff1663095ea7b3603460009054906101000a900473ffffffffffffffffffffffffffffffffffffffff16603560009054906101000a900473ffffffffffffffffffffffffffffffffffffffff1673ffffffffffffffffffffffffffffffffffffffff166370a08231306040518263ffffffff1660e01b8152600401808273ffffffffffffffffffffffffffffffffffffffff1673ffffffffffffffffffffffffffffffffffffffff16815260200191505060206040518083038186803b158015610d5557600080fd5b505afa158015610d69573d6000803e3d6000fd5b505050506040513d6020811015610d7f57600080fd5b81019080805190602001909291905050506040518363ffffffff1660e01b8152600401808373ffffffffffffffffffffffffffffffffffffffff1673ffffffffffffffffffffffffffffffffffffffff16815260200182815260200192505050602060405180830381600087803b158015610df957600080fd5b505af1158015610e0d573d6000803e3d6000fd5b505050506040513d6020811015610e2357600080fd5b810190808051906020019092919050505050603460009054906101000a900473ffffffffffffffffffffffffffffffffffffffff1673ffffffffffffffffffffffffffffffffffffffff1663db006a75603560009054906101000a900473ffffffffffffffffffffffffffffffffffffffff1673ffffffffffffffffffffffffffffffffffffffff166370a08231306040518263ffffffff1660e01b8152600401808273ffffffffffffffffffffffffffffffffffffffff1673ffffffffffffffffffffffffffffffffffffffff16815260200191505060206040518083038186803b158015610f1257600080fd5b505afa158015610f26573d6000803e3d6000fd5b505050506040513d6020811015610f3c57600080fd5b81019080805190602001909291905050506040518263ffffffff1660e01b815260040180828152602001915050600060405180830381600087803b158015610f8357600080fd5b505af1158015610f97573d6000803e3d6000fd5b5050505060606040518060400160405280601181526020017f4465706f736974696e6720746f20506f640000000000000000000000000000008152509050603660009054906101000a900473ffffffffffffffffffffffffffffffffffffffff1673ffffffffffffffffffffffffffffffffffffffff1663095ea7b361101b610c37565b603660009054906101000a900473ffffffffffffffffffffffffffffffffffffffff1673ffffffffffffffffffffffffffffffffffffffff166370a08231306040518263ffffffff1660e01b8152600401808273ffffffffffffffffffffffffffffffffffffffff1673ffffffffffffffffffffffffffffffffffffffff16815260200191505060206040518083038186803b1580156110ba57600080fd5b505afa1580156110ce573d6000803e3d6000fd5b505050506040513d60208110156110e457600080fd5b81019080805190602001909291905050506040518363ffffffff1660e01b8152600401808373ffffffffffffffffffffffffffffffffffffffff1673ffffffffffffffffffffffffffffffffffffffff16815260200182815260200192505050602060405180830381600087803b15801561115e57600080fd5b505af1158015611172573d6000803e3d6000fd5b505050506040513d602081101561118857600080fd5b8101908080519060200190929190505050506111a2610c37565b73ffffffffffffffffffffffffffffffffffffffff16635d303519603660009054906101000a900473ffffffffffffffffffffffffffffffffffffffff1673ffffffffffffffffffffffffffffffffffffffff166370a08231306040518263ffffffff1660e01b8152600401808273ffffffffffffffffffffffffffffffffffffffff1673ffffffffffffffffffffffffffffffffffffffff16815260200191505060206040518083038186803b15801561125c57600080fd5b505afa158015611270573d6000803e3d6000fd5b505050506040513d602081101561128657600080fd5b8101908080519060200190929190505050836040518363ffffffff1660e01b81526004018083815260200180602001828103825283818151815260200191508051906020019080838360005b838110156112ed5780820151818401526020810190506112d2565b50505050905090810190601f16801561131a5780820380516001836020036101000a031916815260200191505b509350505050600060405180830381600087803b15801561133a57600080fd5b505af115801561134e573d6000803e3d6000fd5b50505050600191505090565b611362611581565b73ffffffffffffffffffffffffffffffffffffffff16603360009054906101000a900473ffffffffffffffffffffffffffffffffffffffff1673ffffffffffffffffffffffffffffffffffffffff1614611424576040517f08c379a00000000000000000000000000000000000000000000000000000000081526004018080602001828103825260208152602001807f4f776e61626c653a2063616c6c6572206973206e6f7420746865206f776e657281525060200191505060405180910390fd5b600073ffffffffffffffffffffffffffffffffffffffff168173ffffffffffffffffffffffffffffffffffffffff1614156114aa576040517f08c379a000000000000000000000000000000000000000000000000000000000815260040180806020018281038252602681526020018061158a6026913960400191505060405180910390fd5b8073ffffffffffffffffffffffffffffffffffffffff16603360009054906101000a900473ffffffffffffffffffffffffffffffffffffffff1673ffffffffffffffffffffffffffffffffffffffff167f8be0079c531659141344cd1fd0a4f28419497f9722a3daafe3b4186f6b6457e060405160405180910390a380603360006101000a81548173ffffffffffffffffffffffffffffffffffffffff021916908373ffffffffffffffffffffffffffffffffffffffff16021790555050565b6000803090506000813b9050600081149250505090565b60003390509056fe4f776e61626c653a206e6577206f776e657220697320746865207a65726f2061646472657373416d6f756e7420746f2062652072656465656d65642073686f756c642062652067726561746572207468616e6b2030436f6e747261637420696e7374616e63652068617320616c7265616479206265656e20696e697469616c697a6564a264697066735822122098968b4f41cfbbb975da9c208ffb0e0afc097ce92dd8b6def24215044ec5bdf664736f6c63430006020033",
  "source": "pragma solidity ^0.6.0;\r\n\r\nimport \"./Initializable.sol\";\r\nimport \"openzeppelin-solidity/contracts/math/SafeMath.sol\";\r\nimport \"openzeppelin-solidity/contracts/token/ERC20/ERC20.sol\";\r\nimport \"openzeppelin-solidity/contracts/access/Ownable.sol\";\r\n \r\n\r\ninterface PodInterface {\r\n     // Deposit \r\n     function deposit(uint256 amount, bytes calldata data) external;\r\n\r\n     // Borrow\r\n     function redeem(uint256 amount, bytes calldata data) external;\r\n     \r\n     // Balance Of underlyingAsset\r\n     function balanceOfUnderlying(address user) external view returns (uint256);\r\n}\r\n\r\ncontract Helper {\r\n     /**\r\n     * @dev get Lending Pool uniswap market ropsten address\r\n     */\r\n    function getPod() public pure returns (address pod) {\r\n        pod = 0x395fcB67ff8fdf5b9e2AeeCc02Ef7A8DE87a6677;\r\n    }\r\n}\r\n\r\n/**\r\n * @dev ATOKEN Interface.\r\n */\r\ninterface AToken {\r\n    function balanceOf(address account) external view returns (uint256);\r\n\r\n    function redeem(uint256 _amount) external;\r\n}\r\n\r\ncontract AavePool is Helper, Initializable, Ownable {\r\n    \r\n    using SafeMath for uint256;\r\n    address public aToken = 0x4F96Fe3b7A6Cf9725f59d353F723c1bDb64CA6Aa;\r\n    address public lendingPool = 0x4F96Fe3b7A6Cf9725f59d353F723c1bDb64CA6Aa;\r\n    address public underlyingAsset= 0x4F96Fe3b7A6Cf9725f59d353F723c1bDb64CA6Aa;\r\n\t\r\n\tevent Initialized(address indexed thisAddress);\r\n\r\n    function initialize(address _recipient, address _admin) public initializer {\r\n    emit Initialized(address(this));\r\n    address admin = _admin;\r\n\tOwnable(_recipient);\r\n    }\r\n\t\t  \r\n    /**\r\n     * @dev Invest in Pod throough your atokens\r\n     */\r\n    function invest() public returns(bool)\r\n        {\r\n          // Calling Redeem in Mock AToken\r\n          ERC20(lendingPool).approve(aToken, ERC20(lendingPool).balanceOf(address(this)));\r\n          AToken(aToken).redeem(ERC20(lendingPool).balanceOf(address(this)));\r\n\r\n          // Bytes Payload for deposit\r\n          bytes memory _data = bytes(\"Depositing to Pod\");\r\n          \r\n          // Approve Pod\r\n          ERC20(underlyingAsset).approve(getPod(), ERC20(underlyingAsset).balanceOf(address(this)));\r\n          \r\n          // Deposit in Pod\r\n          PodInterface(getPod()).deposit(ERC20(underlyingAsset).balanceOf(address(this)), _data);\r\n\r\n          return true;\r\n        }\r\n\r\n    function redeem() public onlyOwner returns(bool)\r\n    {\r\n        // Getting Underlying Balance from the Pod\r\n        uint256 underlyingBalance = PodInterface(getPod()).balanceOfUnderlying(msg.sender);\r\n        \r\n        require(underlyingBalance != 0, \"Amount to be redeemed should be greater thank 0\");\r\n        ERC20(underlyingAsset).approve(getPod(), underlyingBalance);\r\n        \r\n        // Redeeming Underlying Asset for Pod Shares\r\n        bytes memory _data = bytes(\"Redeeming from Pod\");\r\n\r\n        PodInterface(getPod()).redeem(underlyingBalance, _data);\r\n        \r\n        // Getting total Balance of Underlying Asset(Pod share + interest)\r\n        uint256 underlyingBalanceInPod = ERC20(underlyingAsset).balanceOf(address(this));\r\n\r\n        // Trnasfer to user\r\n        ERC20(underlyingAsset).transfer(msg.sender, underlyingBalanceInPod);\r\n\r\n        return true;\r\n    }\r\n}\r\n\r\n\r\n",
  "sourcePath": "C:\\Users\\lazypuppet\\ethereum\\snaketh4x0r\\AAVE-Pool-Together\\ethereum\\contracts\\intermediate.sol",
  "compiler": {
    "name": "solc",
    "version": "0.6.2+commit.bacdbe57.Emscripten.clang"
  },
  "schemaVersion": "3.1.0",
  "updatedAt": "2020-05-26T07:39:38.414Z",
  "devdoc": {
    "methods": {
      "getPod()": {
        "details": "get Lending Pool uniswap market ropsten address"
      },
      "invest()": {
        "details": "Invest in Pod throough your atokens"
      },
      "owner()": {
        "details": "Returns the address of the current owner."
      },
      "renounceOwnership()": {
        "details": "Leaves the contract without owner. It will not be possible to call `onlyOwner` functions anymore. Can only be called by the current owner.     * NOTE: Renouncing ownership will leave the contract without an owner, thereby removing any functionality that is only available to the owner."
      },
      "transferOwnership(address)": {
        "details": "Transfers ownership of the contract to a new account (`newOwner`). Can only be called by the current owner."
      }
    }
  },
  "userdoc": {
    "methods": {}
  }
}