{
  "contractName": "Helper",
  "abi": [
    {
      "inputs": [],
      "name": "getPod",
      "outputs": [
        {
          "internalType": "address",
          "name": "pod",
          "type": "address"
        }
      ],
      "stateMutability": "pure",
      "type": "function"
    }
  ],
  "bytecode": "0x608060405234801561001057600080fd5b5060c78061001f6000396000f3fe6080604052348015600f57600080fd5b506004361060285760003560e01c8063c8e11cac14602d575b600080fd5b60336075565b604051808273ffffffffffffffffffffffffffffffffffffffff1673ffffffffffffffffffffffffffffffffffffffff16815260200191505060405180910390f35b600073395fcb67ff8fdf5b9e2aeecc02ef7a8de87a667790509056fea2646970667358221220fee9be0c90770b43b687c1d06f06c864f093fc35391b9a13070c06c9505f23e464736f6c63430006020033",
  "source": "pragma solidity ^0.6.0;\r\n\r\nimport \"@openzeppelin/contracts-ethereum-package/contracts/Initializable.sol\";\r\nimport \"@openzeppelin/contracts-ethereum-package/contracts/access/Ownable.sol\";\r\nimport \"@openzeppelin/contracts-ethereum-package/contracts/math/SafeMath.sol\";\r\nimport \"@openzeppelin/contracts-ethereum-package/contracts/token/ERC20/IERC20.sol\";\r\n \r\n\r\ninterface PodInterface {\r\n     // Deposit \r\n     function deposit(uint256 amount, bytes calldata data) external;\r\n\r\n     // Borrow\r\n     function redeem(uint256 amount, bytes calldata data) external;\r\n     \r\n     // Balance Of underlyingAsset\r\n     function balanceOfUnderlying(address user) external view returns (uint256);\r\n}\r\n\r\ncontract Helper {\r\n     /**\r\n     * @dev get Lending Pool uniswap market ropsten address\r\n     */\r\n    function getPod() public pure returns (address pod) {\r\n        pod = 0x395fcB67ff8fdf5b9e2AeeCc02Ef7A8DE87a6677;\r\n    }\r\n}\r\n\r\n/**\r\n * @dev ATOKEN Interface.\r\n */\r\ninterface AToken {\r\n    function balanceOf(address account) external view returns (uint256);\r\n\r\n    function redeem(uint256 _amount) external;\r\n}\r\n\r\ncontract AavePool is Helper, Initializable, OwnableUpgradeSafe {\r\n    \r\n    using SafeMath for uint256;\r\n    address public aToken = 0x4F96Fe3b7A6Cf9725f59d353F723c1bDb64CA6Aa;\r\n    address public lendingPool = 0x4F96Fe3b7A6Cf9725f59d353F723c1bDb64CA6Aa;\r\n    address public underlyingAsset= 0x4F96Fe3b7A6Cf9725f59d353F723c1bDb64CA6Aa;\r\n\t\r\n\taddress public admin;\r\n\tuint256 public version;\r\n\t\r\n\tevent Initialized(address indexed thisAddress);\r\n\r\n    function initialize(address _recipient, address _admin) public initializer {\r\n    emit Initialized(address(this));\r\n\tOwnableUpgradeSafe.__Ownable_init();\r\n    OwnableUpgradeSafe.transferOwnership(_recipient);\r\n\tadmin = _admin;\r\n\tversion = 1;\r\n    }\r\n\t\t  \r\n    /**\r\n     * @dev Invest in Pod throough your atokens\r\n     */\r\n    function invest() public returns(bool)\r\n        {\r\n          // Calling Redeem in Mock AToken\r\n          IERC20(lendingPool).approve(aToken, IERC20(lendingPool).balanceOf(address(this)));\r\n          AToken(aToken).redeem(IERC20(lendingPool).balanceOf(address(this)));\r\n\r\n          // Bytes Payload for deposit\r\n          bytes memory _data = bytes(\"Depositing to Pod\");\r\n          \r\n          // Approve Pod\r\n          IERC20(underlyingAsset).approve(getPod(), IERC20(underlyingAsset).balanceOf(address(this)));\r\n          \r\n          // Deposit in Pod\r\n          PodInterface(getPod()).deposit(IERC20(underlyingAsset).balanceOf(address(this)), _data);\r\n\r\n          return true;\r\n        }\r\n\r\n    function redeem() public onlyOwner returns(bool)\r\n    {\r\n        // Getting Underlying Balance from the Pod\r\n        uint256 underlyingBalance = PodInterface(getPod()).balanceOfUnderlying(msg.sender);\r\n        \r\n        require(underlyingBalance != 0, \"Amount to be redeemed should be greater thank 0\");\r\n        IERC20(underlyingAsset).approve(getPod(), underlyingBalance);\r\n        \r\n        // Redeeming Underlying Asset for Pod Shares\r\n        bytes memory _data = bytes(\"Redeeming from Pod\");\r\n\r\n        PodInterface(getPod()).redeem(underlyingBalance, _data);\r\n        \r\n        // Getting total Balance of Underlying Asset(Pod share + interest)\r\n        uint256 underlyingBalanceInPod = IERC20(underlyingAsset).balanceOf(address(this));\r\n\r\n        // Trnasfer to user\r\n        IERC20(underlyingAsset).transfer(msg.sender, underlyingBalanceInPod);\r\n\r\n        return true;\r\n    }\r\n}\r\n\r\n\r\n",
  "sourcePath": "C:\\Users\\lazypuppet\\ethereum\\snaketh4x0r\\AAVE-Pool-Together\\ethereum\\contracts\\intermediate.sol",
  "compiler": {
    "name": "solc",
    "version": "0.6.2+commit.bacdbe57.Emscripten.clang"
  },
  "schemaVersion": "3.1.0",
  "updatedAt": "2020-05-26T17:18:02.496Z",
  "devdoc": {
    "methods": {
      "getPod()": {
        "details": "get Lending Pool uniswap market ropsten address"
      }
    }
  },
  "userdoc": {
    "methods": {}
  }
}