{
  "contractName": "IntermediateFactory",
  "abi": [
    {
      "anonymous": false,
      "inputs": [
        {
          "indexed": true,
          "internalType": "address",
          "name": "_address",
          "type": "address"
        }
      ],
      "name": "IntermediateCreated",
      "type": "event"
    },
    {
      "anonymous": false,
      "inputs": [
        {
          "indexed": false,
          "internalType": "address",
          "name": "proxy",
          "type": "address"
        }
      ],
      "name": "ProxyCreated",
      "type": "event"
    },
    {
      "inputs": [
        {
          "internalType": "address",
          "name": "_logic",
          "type": "address"
        },
        {
          "internalType": "bytes",
          "name": "_data",
          "type": "bytes"
        }
      ],
      "name": "deployMinimal",
      "outputs": [
        {
          "internalType": "address",
          "name": "proxy",
          "type": "address"
        }
      ],
      "stateMutability": "nonpayable",
      "type": "function"
    },
    {
      "inputs": [
        {
          "internalType": "address",
          "name": "",
          "type": "address"
        }
      ],
      "name": "intermediateList",
      "outputs": [
        {
          "internalType": "address",
          "name": "",
          "type": "address"
        }
      ],
      "stateMutability": "view",
      "type": "function"
    },
    {
      "inputs": [
        {
          "internalType": "address",
          "name": "_target",
          "type": "address"
        },
        {
          "internalType": "address",
          "name": "_user",
          "type": "address"
        }
      ],
      "name": "createIntermediate",
      "outputs": [],
      "stateMutability": "nonpayable",
      "type": "function"
    },
    {
      "inputs": [
        {
          "internalType": "address",
          "name": "_user",
          "type": "address"
        }
      ],
      "name": "getIntermediateUser",
      "outputs": [
        {
          "internalType": "address",
          "name": "",
          "type": "address"
        }
      ],
      "stateMutability": "view",
      "type": "function"
    }
  ],
  "bytecode": "0x608060405234801561001057600080fd5b50610779806100206000396000f3fe608060405234801561001057600080fd5b506004361061004c5760003560e01c8063113004f6146100515780636e7f30eb146100b55780638813726414610139578063b3eeb5e2146101bd575b600080fd5b6100b36004803603604081101561006757600080fd5b81019080803573ffffffffffffffffffffffffffffffffffffffff169060200190929190803573ffffffffffffffffffffffffffffffffffffffff1690602001909291905050506102d8565b005b6100f7600480360360208110156100cb57600080fd5b81019080803573ffffffffffffffffffffffffffffffffffffffff1690602001909291905050506104a4565b604051808273ffffffffffffffffffffffffffffffffffffffff1673ffffffffffffffffffffffffffffffffffffffff16815260200191505060405180910390f35b61017b6004803603602081101561014f57600080fd5b81019080803573ffffffffffffffffffffffffffffffffffffffff16906020019092919050505061050c565b604051808273ffffffffffffffffffffffffffffffffffffffff1673ffffffffffffffffffffffffffffffffffffffff16815260200191505060405180910390f35b610296600480360360408110156101d357600080fd5b81019080803573ffffffffffffffffffffffffffffffffffffffff1690602001909291908035906020019064010000000081111561021057600080fd5b82018360208201111561022257600080fd5b8035906020019184600183028401116401000000008311171561024457600080fd5b91908080601f016020809104026020016040519081016040528093929190818152602001838380828437600081840152601f19601f82011690508083019250505050505050919291929050505061053f565b604051808273ffffffffffffffffffffffffffffffffffffffff1673ffffffffffffffffffffffffffffffffffffffff16815260200191505060405180910390f35b600033905060608282604051602401808373ffffffffffffffffffffffffffffffffffffffff1673ffffffffffffffffffffffffffffffffffffffff1681526020018273ffffffffffffffffffffffffffffffffffffffff1673ffffffffffffffffffffffffffffffffffffffff168152602001925050506040516020818303038152906040527f485cc955000000000000000000000000000000000000000000000000000000007bffffffffffffffffffffffffffffffffffffffffffffffffffffffff19166020820180517bffffffffffffffffffffffffffffffffffffffffffffffffffffffff8381831617835250505050905060006103db858361053f565b90508073ffffffffffffffffffffffffffffffffffffffff167f982be6988ece8a54698ae6dbdbf2cfb650f8cdef399e2002ab603064a74b579160405160405180910390a2806000808673ffffffffffffffffffffffffffffffffffffffff1673ffffffffffffffffffffffffffffffffffffffff16815260200190815260200160002060006101000a81548173ffffffffffffffffffffffffffffffffffffffff021916908373ffffffffffffffffffffffffffffffffffffffff1602179055505050505050565b60008060008373ffffffffffffffffffffffffffffffffffffffff1673ffffffffffffffffffffffffffffffffffffffff16815260200190815260200160002060009054906101000a900473ffffffffffffffffffffffffffffffffffffffff169050919050565b60006020528060005260406000206000915054906101000a900473ffffffffffffffffffffffffffffffffffffffff1681565b6000808360601b90506040517f3d602d80600a3d3981f3363d3d373d3d3d363d7300000000000000000000000081528160148201527f5af43d82803e903d91602b57fd5bf3000000000000000000000000000000000060288201526037816000f09250507efffc2da0b561cae30d9826d37709e9421c4725faebc226cbbb7ef5fc5e734982604051808273ffffffffffffffffffffffffffffffffffffffff1673ffffffffffffffffffffffffffffffffffffffff16815260200191505060405180910390a160008351111561073c5760008273ffffffffffffffffffffffffffffffffffffffff16846040518082805190602001908083835b6020831061065c5780518252602082019150602081019050602083039250610639565b6001836020036101000a0380198251168184511680821785525050505050509050019150506000604051808303816000865af19150503d80600081146106be576040519150601f19603f3d011682016040523d82523d6000602084013e6106c3565b606091505b505090508061073a576040517f08c379a00000000000000000000000000000000000000000000000000000000081526004018080602001828103825260178152602001807f636f6e7374727563746f722063616c6c206661696c656400000000000000000081525060200191505060405180910390fd5b505b509291505056fea26469706673582212208cde7609e0c013599b4c2e368ce942f8d2437b3f95b1cf5c6e130bb8393b992064736f6c63430006020033",
  "source": "pragma solidity ^0.6.0;\r\n\r\nimport \"./ProxyFactory.sol\";\r\n\r\ncontract IntermediateFactory is ProxyFactory {\r\n\r\n    mapping (address => address) public intermediateList; // maps user => intermediate proxy\r\n\r\n    event IntermediateCreated(address indexed _address);\r\n\r\n    function createIntermediate(address _target, address _user) external {\r\n\r\n        address _admin = msg.sender;\r\n        bytes memory _payload = abi.encodeWithSignature(\"initialize(address,address)\", _user, _admin);\r\n\r\n        // Deploy proxy\r\n        address _intermediate = deployMinimal(_target, _payload);\r\n        emit IntermediateCreated(_intermediate);\r\n\r\n        intermediateList[_user] = _intermediate;\r\n    }\r\n\t\r\n\tfunction getIntermediateUser(address _user) public view returns (address) {\r\n    return intermediateList[_user];\r\n    }\r\n}",
  "sourcePath": "C:\\Users\\lazypuppet\\ethereum\\snaketh4x0r\\AAVE-Pool-Together\\ethereum\\contracts\\IntermediateFactory.sol",
  "compiler": {
    "name": "solc",
    "version": "0.6.2+commit.bacdbe57.Emscripten.clang"
  },
  "schemaVersion": "3.1.0",
  "updatedAt": "2020-05-26T07:39:37.846Z",
  "devdoc": {
    "methods": {}
  },
  "userdoc": {
    "methods": {}
  }
}