{
  "contractName": "mockatoken",
  "abi": [
    {
      "inputs": [
        {
          "internalType": "contract IERC20",
          "name": "_atokenaddress",
          "type": "address"
        }
      ],
      "stateMutability": "nonpayable",
      "type": "constructor"
    },
    {
      "inputs": [],
      "name": "atokenaddress",
      "outputs": [
        {
          "internalType": "contract IERC20",
          "name": "",
          "type": "address"
        }
      ],
      "stateMutability": "view",
      "type": "function"
    },
    {
      "inputs": [
        {
          "internalType": "address",
          "name": "_to",
          "type": "address"
        }
      ],
      "name": "redirectInterestStream",
      "outputs": [],
      "stateMutability": "nonpayable",
      "type": "function"
    }
  ],
  "bytecode": "0x608060405234801561001057600080fd5b506040516103773803806103778339818101604052602081101561003357600080fd5b8101908080519060200190929190505050806000806101000a81548173ffffffffffffffffffffffffffffffffffffffff021916908373ffffffffffffffffffffffffffffffffffffffff160217905550506102e3806100946000396000f3fe608060405234801561001057600080fd5b50600436106100365760003560e01c80630e49072d1461003b578063d633c8391461007f575b600080fd5b61007d6004803603602081101561005157600080fd5b81019080803573ffffffffffffffffffffffffffffffffffffffff1690602001909291905050506100c9565b005b610087610288565b604051808273ffffffffffffffffffffffffffffffffffffffff1673ffffffffffffffffffffffffffffffffffffffff16815260200191505060405180910390f35b6000809054906101000a900473ffffffffffffffffffffffffffffffffffffffff1673ffffffffffffffffffffffffffffffffffffffff1663a9059cbb826000809054906101000a900473ffffffffffffffffffffffffffffffffffffffff1673ffffffffffffffffffffffffffffffffffffffff166370a08231306040518263ffffffff1660e01b8152600401808273ffffffffffffffffffffffffffffffffffffffff1673ffffffffffffffffffffffffffffffffffffffff16815260200191505060206040518083038186803b1580156101a557600080fd5b505afa1580156101b9573d6000803e3d6000fd5b505050506040513d60208110156101cf57600080fd5b81019080805190602001909291905050506040518363ffffffff1660e01b8152600401808373ffffffffffffffffffffffffffffffffffffffff1673ffffffffffffffffffffffffffffffffffffffff16815260200182815260200192505050602060405180830381600087803b15801561024957600080fd5b505af115801561025d573d6000803e3d6000fd5b505050506040513d602081101561027357600080fd5b81019080805190602001909291905050505050565b6000809054906101000a900473ffffffffffffffffffffffffffffffffffffffff168156fea26469706673582212202906a7e8808490126325240a09e652b35797e8997b96cbaed4e9d74291f5ea6264736f6c63430006020033",
  "source": "pragma solidity ^0.6.0;\r\n\r\nimport \"openzeppelin-solidity/contracts/token/ERC20/IERC20.sol\";\r\n\r\ncontract mockatoken {\r\n\r\n     IERC20 public atokenaddress;\r\n\r\n     //instead of creating another atoken contract I have inherited it in lending pool so plz pass address of lending pool here\r\n     constructor(IERC20 _atokenaddress) public {\r\n       atokenaddress = _atokenaddress;\r\n     }\r\n\r\n     //mocking aave atoken redirectInterestStream function but transfers balance of this contract to _to\r\n     //after it recieves atokens minted in previous step this will send atokens in this contract to _to\r\n     //this will mimic atoken contract on mainet\r\n     function redirectInterestStream(address _to) external {\r\n       atokenaddress.transfer(_to,atokenaddress.balanceOf(address(this)));\r\n     }\r\n}\r\n",
  "sourcePath": "C:\\Users\\lazypuppet\\ethereum projects\\snaketh4x0r\\AAVE-Pool-Together\\ethereum\\contracts\\mocks\\mockatoken.sol",
  "compiler": {
    "name": "solc",
    "version": "0.6.2+commit.bacdbe57.Emscripten.clang"
  },
  "schemaVersion": "3.1.0",
  "updatedAt": "2020-05-21T08:32:28.959Z",
  "devdoc": {
    "methods": {}
  },
  "userdoc": {
    "methods": {}
  }
}