{
  "contractName": "ProxyFactory",
  "abi": [
    {
      "anonymous": false,
      "inputs": [
        {
          "indexed": false,
          "internalType": "address",
          "name": "proxy",
          "type": "address"
        }
      ],
      "name": "ProxyCreated",
      "type": "event"
    },
    {
      "inputs": [
        {
          "internalType": "address",
          "name": "_logic",
          "type": "address"
        },
        {
          "internalType": "bytes",
          "name": "_data",
          "type": "bytes"
        }
      ],
      "name": "deployMinimal",
      "outputs": [
        {
          "internalType": "address",
          "name": "proxy",
          "type": "address"
        }
      ],
      "stateMutability": "nonpayable",
      "type": "function"
    }
  ],
  "bytecode": "0x608060405234801561001057600080fd5b50610385806100206000396000f3fe608060405234801561001057600080fd5b506004361061002b5760003560e01c8063b3eeb5e214610030575b600080fd5b6101096004803603604081101561004657600080fd5b81019080803573ffffffffffffffffffffffffffffffffffffffff1690602001909291908035906020019064010000000081111561008357600080fd5b82018360208201111561009557600080fd5b803590602001918460018302840111640100000000831117156100b757600080fd5b91908080601f016020809104026020016040519081016040528093929190818152602001838380828437600081840152601f19601f82011690508083019250505050505050919291929050505061014b565b604051808273ffffffffffffffffffffffffffffffffffffffff1673ffffffffffffffffffffffffffffffffffffffff16815260200191505060405180910390f35b6000808360601b90506040517f3d602d80600a3d3981f3363d3d373d3d3d363d7300000000000000000000000081528160148201527f5af43d82803e903d91602b57fd5bf3000000000000000000000000000000000060288201526037816000f09250507efffc2da0b561cae30d9826d37709e9421c4725faebc226cbbb7ef5fc5e734982604051808273ffffffffffffffffffffffffffffffffffffffff1673ffffffffffffffffffffffffffffffffffffffff16815260200191505060405180910390a16000835111156103485760008273ffffffffffffffffffffffffffffffffffffffff16846040518082805190602001908083835b602083106102685780518252602082019150602081019050602083039250610245565b6001836020036101000a0380198251168184511680821785525050505050509050019150506000604051808303816000865af19150503d80600081146102ca576040519150601f19603f3d011682016040523d82523d6000602084013e6102cf565b606091505b5050905080610346576040517f08c379a00000000000000000000000000000000000000000000000000000000081526004018080602001828103825260178152602001807f636f6e7374727563746f722063616c6c206661696c656400000000000000000081525060200191505060405180910390fd5b505b509291505056fea26469706673582212203b4b88d463ed28b49f9da162259d44098ef059f417ead2c20e73fd4f978fe47464736f6c63430006020033",
  "source": "pragma solidity ^0.6.0;\r\n\r\n// solium-disable security/no-inline-assembly\r\n// solium-disable security/no-low-level-calls\r\ncontract ProxyFactory {\r\n\r\n  event ProxyCreated(address proxy);\r\n\r\n  function deployMinimal(address _logic, bytes memory _data) public returns (address proxy) {\r\n    // Adapted from https://github.com/optionality/clone-factory/blob/32782f82dfc5a00d103a7e61a17a5dedbd1e8e9d/contracts/CloneFactory.sol\r\n    bytes20 targetBytes = bytes20(_logic);\r\n    assembly {\r\n      let clone := mload(0x40)\r\n      mstore(clone, 0x3d602d80600a3d3981f3363d3d373d3d3d363d73000000000000000000000000)\r\n      mstore(add(clone, 0x14), targetBytes)\r\n      mstore(add(clone, 0x28), 0x5af43d82803e903d91602b57fd5bf30000000000000000000000000000000000)\r\n      proxy := create(0, clone, 0x37)\r\n    }\r\n\r\n    emit ProxyCreated(address(proxy));\r\n\r\n    if(_data.length > 0) {\r\n      (bool success,) = proxy.call(_data);\r\n      require(success, \"constructor call failed\");\r\n    }\r\n  }\r\n}",
  "sourcePath": "C:\\Users\\lazypuppet\\ethereum\\snaketh4x0r\\AAVE-Pool-Together\\ethereum\\contracts\\ProxyFactory.sol",
  "compiler": {
    "name": "solc",
    "version": "0.6.2+commit.bacdbe57.Emscripten.clang"
  },
  "schemaVersion": "3.1.0",
  "updatedAt": "2020-05-26T17:29:52.082Z",
  "devdoc": {
    "methods": {}
  },
  "userdoc": {
    "methods": {}
  }
}