{
  "contractName": "AavePool",
  "abi": [
    {
      "anonymous": false,
      "inputs": [
        {
          "indexed": true,
          "internalType": "address",
          "name": "thisAddress",
          "type": "address"
        }
      ],
      "name": "Initialized",
      "type": "event"
    },
    {
      "anonymous": false,
      "inputs": [
        {
          "indexed": true,
          "internalType": "address",
          "name": "previousOwner",
          "type": "address"
        },
        {
          "indexed": true,
          "internalType": "address",
          "name": "newOwner",
          "type": "address"
        }
      ],
      "name": "OwnershipTransferred",
      "type": "event"
    },
    {
      "inputs": [],
      "name": "aToken",
      "outputs": [
        {
          "internalType": "address",
          "name": "",
          "type": "address"
        }
      ],
      "stateMutability": "view",
      "type": "function"
    },
    {
      "inputs": [],
      "name": "admin",
      "outputs": [
        {
          "internalType": "address",
          "name": "",
          "type": "address"
        }
      ],
      "stateMutability": "view",
      "type": "function"
    },
    {
      "inputs": [],
      "name": "getPod",
      "outputs": [
        {
          "internalType": "address",
          "name": "pod",
          "type": "address"
        }
      ],
      "stateMutability": "pure",
      "type": "function"
    },
    {
      "inputs": [],
      "name": "lendingPool",
      "outputs": [
        {
          "internalType": "address",
          "name": "",
          "type": "address"
        }
      ],
      "stateMutability": "view",
      "type": "function"
    },
    {
      "inputs": [],
      "name": "owner",
      "outputs": [
        {
          "internalType": "address",
          "name": "",
          "type": "address"
        }
      ],
      "stateMutability": "view",
      "type": "function"
    },
    {
      "inputs": [],
      "name": "renounceOwnership",
      "outputs": [],
      "stateMutability": "nonpayable",
      "type": "function"
    },
    {
      "inputs": [
        {
          "internalType": "address",
          "name": "newOwner",
          "type": "address"
        }
      ],
      "name": "transferOwnership",
      "outputs": [],
      "stateMutability": "nonpayable",
      "type": "function"
    },
    {
      "inputs": [],
      "name": "underlyingAsset",
      "outputs": [
        {
          "internalType": "address",
          "name": "",
          "type": "address"
        }
      ],
      "stateMutability": "view",
      "type": "function"
    },
    {
      "inputs": [],
      "name": "version",
      "outputs": [
        {
          "internalType": "uint256",
          "name": "",
          "type": "uint256"
        }
      ],
      "stateMutability": "view",
      "type": "function"
    },
    {
      "inputs": [
        {
          "internalType": "address",
          "name": "_recipient",
          "type": "address"
        },
        {
          "internalType": "address",
          "name": "_admin",
          "type": "address"
        }
      ],
      "name": "initialize",
      "outputs": [],
      "stateMutability": "nonpayable",
      "type": "function"
    },
    {
      "inputs": [],
      "name": "invest",
      "outputs": [
        {
          "internalType": "bool",
          "name": "",
          "type": "bool"
        }
      ],
      "stateMutability": "nonpayable",
      "type": "function"
    },
    {
      "inputs": [],
      "name": "redeem",
      "outputs": [
        {
          "internalType": "bool",
          "name": "",
          "type": "bool"
        }
      ],
      "stateMutability": "nonpayable",
      "type": "function"
    }
  ],
  "bytecode": "0x6080604052734f96fe3b7a6cf9725f59d353f723c1bdb64ca6aa609760006101000a81548173ffffffffffffffffffffffffffffffffffffffff021916908373ffffffffffffffffffffffffffffffffffffffff160217905550734f96fe3b7a6cf9725f59d353f723c1bdb64ca6aa609860006101000a81548173ffffffffffffffffffffffffffffffffffffffff021916908373ffffffffffffffffffffffffffffffffffffffff160217905550734f96fe3b7a6cf9725f59d353f723c1bdb64ca6aa609960006101000a81548173ffffffffffffffffffffffffffffffffffffffff021916908373ffffffffffffffffffffffffffffffffffffffff16021790555034801561010f57600080fd5b50611af68061011f6000396000f3fe608060405234801561001057600080fd5b50600436106100b45760003560e01c8063a59a997311610071578063a59a997314610223578063be040fb01461026d578063c8e11cac1461028f578063e8b5e51f146102d9578063f2fde38b146102fb578063f851a4401461033f576100b4565b8063485cc955146100b957806354fd4d501461011d578063715018a61461013b5780637158da7c146101455780638da5cb5b1461018f578063a0c1f15e146101d9575b600080fd5b61011b600480360360408110156100cf57600080fd5b81019080803573ffffffffffffffffffffffffffffffffffffffff169060200190929190803573ffffffffffffffffffffffffffffffffffffffff169060200190929190505050610389565b005b610125610527565b6040518082815260200191505060405180910390f35b61014361052d565b005b61014d6106b8565b604051808273ffffffffffffffffffffffffffffffffffffffff1673ffffffffffffffffffffffffffffffffffffffff16815260200191505060405180910390f35b6101976106de565b604051808273ffffffffffffffffffffffffffffffffffffffff1673ffffffffffffffffffffffffffffffffffffffff16815260200191505060405180910390f35b6101e1610708565b604051808273ffffffffffffffffffffffffffffffffffffffff1673ffffffffffffffffffffffffffffffffffffffff16815260200191505060405180910390f35b61022b61072e565b604051808273ffffffffffffffffffffffffffffffffffffffff1673ffffffffffffffffffffffffffffffffffffffff16815260200191505060405180910390f35b610275610754565b604051808215151515815260200191505060405180910390f35b610297610d0f565b604051808273ffffffffffffffffffffffffffffffffffffffff1673ffffffffffffffffffffffffffffffffffffffff16815260200191505060405180910390f35b6102e1610d2b565b604051808215151515815260200191505060405180910390f35b61033d6004803603602081101561031157600080fd5b81019080803573ffffffffffffffffffffffffffffffffffffffff169060200190929190505050611432565b005b610347611642565b604051808273ffffffffffffffffffffffffffffffffffffffff1673ffffffffffffffffffffffffffffffffffffffff16815260200191505060405180910390f35b600060019054906101000a900460ff16806103a857506103a7611668565b5b806103bf57506000809054906101000a900460ff16155b610414576040517f08c379a000000000000000000000000000000000000000000000000000000000815260040180806020018281038252602e815260200180611a93602e913960400191505060405180910390fd5b60008060019054906101000a900460ff161590508015610464576001600060016101000a81548160ff02191690831515021790555060016000806101000a81548160ff0219169083151502179055505b3073ffffffffffffffffffffffffffffffffffffffff167f908408e307fc569b417f6cbec5d5a06f44a0a505ac0479b47d421a4b2fd6a1e660405160405180910390a26104af61167f565b6104b883611432565b81609a60006101000a81548173ffffffffffffffffffffffffffffffffffffffff021916908373ffffffffffffffffffffffffffffffffffffffff1602179055506001609b8190555080156105225760008060016101000a81548160ff0219169083151502179055505b505050565b609b5481565b61053561178e565b73ffffffffffffffffffffffffffffffffffffffff16606560009054906101000a900473ffffffffffffffffffffffffffffffffffffffff1673ffffffffffffffffffffffffffffffffffffffff16146105f7576040517f08c379a00000000000000000000000000000000000000000000000000000000081526004018080602001828103825260208152602001807f4f776e61626c653a2063616c6c6572206973206e6f7420746865206f776e657281525060200191505060405180910390fd5b600073ffffffffffffffffffffffffffffffffffffffff16606560009054906101000a900473ffffffffffffffffffffffffffffffffffffffff1673ffffffffffffffffffffffffffffffffffffffff167f8be0079c531659141344cd1fd0a4f28419497f9722a3daafe3b4186f6b6457e060405160405180910390a36000606560006101000a81548173ffffffffffffffffffffffffffffffffffffffff021916908373ffffffffffffffffffffffffffffffffffffffff160217905550565b609960009054906101000a900473ffffffffffffffffffffffffffffffffffffffff1681565b6000606560009054906101000a900473ffffffffffffffffffffffffffffffffffffffff16905090565b609760009054906101000a900473ffffffffffffffffffffffffffffffffffffffff1681565b609860009054906101000a900473ffffffffffffffffffffffffffffffffffffffff1681565b600061075e61178e565b73ffffffffffffffffffffffffffffffffffffffff16606560009054906101000a900473ffffffffffffffffffffffffffffffffffffffff1673ffffffffffffffffffffffffffffffffffffffff1614610820576040517f08c379a00000000000000000000000000000000000000000000000000000000081526004018080602001828103825260208152602001807f4f776e61626c653a2063616c6c6572206973206e6f7420746865206f776e657281525060200191505060405180910390fd5b600061082a610d0f565b73ffffffffffffffffffffffffffffffffffffffff16633af9e669336040518263ffffffff1660e01b8152600401808273ffffffffffffffffffffffffffffffffffffffff1673ffffffffffffffffffffffffffffffffffffffff16815260200191505060206040518083038186803b1580156108a657600080fd5b505afa1580156108ba573d6000803e3d6000fd5b505050506040513d60208110156108d057600080fd5b81019080805190602001909291905050509050600081141561093d576040517f08c379a000000000000000000000000000000000000000000000000000000000815260040180806020018281038252602f815260200180611a64602f913960400191505060405180910390fd5b609960009054906101000a900473ffffffffffffffffffffffffffffffffffffffff1673ffffffffffffffffffffffffffffffffffffffff1663095ea7b3610983610d0f565b836040518363ffffffff1660e01b8152600401808373ffffffffffffffffffffffffffffffffffffffff1673ffffffffffffffffffffffffffffffffffffffff16815260200182815260200192505050602060405180830381600087803b1580156109ed57600080fd5b505af1158015610a01573d6000803e3d6000fd5b505050506040513d6020811015610a1757600080fd5b81019080805190602001909291905050505060606040518060400160405280601281526020017f52656465656d696e672066726f6d20506f6400000000000000000000000000008152509050610a6b610d0f565b73ffffffffffffffffffffffffffffffffffffffff1663e77c646d83836040518363ffffffff1660e01b81526004018083815260200180602001828103825283818151815260200191508051906020019080838360005b83811015610add578082015181840152602081019050610ac2565b50505050905090810190601f168015610b0a5780820380516001836020036101000a031916815260200191505b509350505050600060405180830381600087803b158015610b2a57600080fd5b505af1158015610b3e573d6000803e3d6000fd5b505050506000609960009054906101000a900473ffffffffffffffffffffffffffffffffffffffff1673ffffffffffffffffffffffffffffffffffffffff166370a08231306040518263ffffffff1660e01b8152600401808273ffffffffffffffffffffffffffffffffffffffff1673ffffffffffffffffffffffffffffffffffffffff16815260200191505060206040518083038186803b158015610be357600080fd5b505afa158015610bf7573d6000803e3d6000fd5b505050506040513d6020811015610c0d57600080fd5b81019080805190602001909291905050509050609960009054906101000a900473ffffffffffffffffffffffffffffffffffffffff1673ffffffffffffffffffffffffffffffffffffffff1663a9059cbb33836040518363ffffffff1660e01b8152600401808373ffffffffffffffffffffffffffffffffffffffff1673ffffffffffffffffffffffffffffffffffffffff16815260200182815260200192505050602060405180830381600087803b158015610cc957600080fd5b505af1158015610cdd573d6000803e3d6000fd5b505050506040513d6020811015610cf357600080fd5b8101908080519060200190929190505050506001935050505090565b600073395fcb67ff8fdf5b9e2aeecc02ef7a8de87a6677905090565b6000609860009054906101000a900473ffffffffffffffffffffffffffffffffffffffff1673ffffffffffffffffffffffffffffffffffffffff1663095ea7b3609760009054906101000a900473ffffffffffffffffffffffffffffffffffffffff16609860009054906101000a900473ffffffffffffffffffffffffffffffffffffffff1673ffffffffffffffffffffffffffffffffffffffff166370a08231306040518263ffffffff1660e01b8152600401808273ffffffffffffffffffffffffffffffffffffffff1673ffffffffffffffffffffffffffffffffffffffff16815260200191505060206040518083038186803b158015610e2d57600080fd5b505afa158015610e41573d6000803e3d6000fd5b505050506040513d6020811015610e5757600080fd5b81019080805190602001909291905050506040518363ffffffff1660e01b8152600401808373ffffffffffffffffffffffffffffffffffffffff1673ffffffffffffffffffffffffffffffffffffffff16815260200182815260200192505050602060405180830381600087803b158015610ed157600080fd5b505af1158015610ee5573d6000803e3d6000fd5b505050506040513d6020811015610efb57600080fd5b810190808051906020019092919050505050609760009054906101000a900473ffffffffffffffffffffffffffffffffffffffff1673ffffffffffffffffffffffffffffffffffffffff1663db006a75609860009054906101000a900473ffffffffffffffffffffffffffffffffffffffff1673ffffffffffffffffffffffffffffffffffffffff166370a08231306040518263ffffffff1660e01b8152600401808273ffffffffffffffffffffffffffffffffffffffff1673ffffffffffffffffffffffffffffffffffffffff16815260200191505060206040518083038186803b158015610fea57600080fd5b505afa158015610ffe573d6000803e3d6000fd5b505050506040513d602081101561101457600080fd5b81019080805190602001909291905050506040518263ffffffff1660e01b815260040180828152602001915050600060405180830381600087803b15801561105b57600080fd5b505af115801561106f573d6000803e3d6000fd5b5050505060606040518060400160405280601181526020017f4465706f736974696e6720746f20506f640000000000000000000000000000008152509050609960009054906101000a900473ffffffffffffffffffffffffffffffffffffffff1673ffffffffffffffffffffffffffffffffffffffff1663095ea7b36110f3610d0f565b609960009054906101000a900473ffffffffffffffffffffffffffffffffffffffff1673ffffffffffffffffffffffffffffffffffffffff166370a08231306040518263ffffffff1660e01b8152600401808273ffffffffffffffffffffffffffffffffffffffff1673ffffffffffffffffffffffffffffffffffffffff16815260200191505060206040518083038186803b15801561119257600080fd5b505afa1580156111a6573d6000803e3d6000fd5b505050506040513d60208110156111bc57600080fd5b81019080805190602001909291905050506040518363ffffffff1660e01b8152600401808373ffffffffffffffffffffffffffffffffffffffff1673ffffffffffffffffffffffffffffffffffffffff16815260200182815260200192505050602060405180830381600087803b15801561123657600080fd5b505af115801561124a573d6000803e3d6000fd5b505050506040513d602081101561126057600080fd5b81019080805190602001909291905050505061127a610d0f565b73ffffffffffffffffffffffffffffffffffffffff16635d303519609960009054906101000a900473ffffffffffffffffffffffffffffffffffffffff1673ffffffffffffffffffffffffffffffffffffffff166370a08231306040518263ffffffff1660e01b8152600401808273ffffffffffffffffffffffffffffffffffffffff1673ffffffffffffffffffffffffffffffffffffffff16815260200191505060206040518083038186803b15801561133457600080fd5b505afa158015611348573d6000803e3d6000fd5b505050506040513d602081101561135e57600080fd5b8101908080519060200190929190505050836040518363ffffffff1660e01b81526004018083815260200180602001828103825283818151815260200191508051906020019080838360005b838110156113c55780820151818401526020810190506113aa565b50505050905090810190601f1680156113f25780820380516001836020036101000a031916815260200191505b509350505050600060405180830381600087803b15801561141257600080fd5b505af1158015611426573d6000803e3d6000fd5b50505050600191505090565b61143a61178e565b73ffffffffffffffffffffffffffffffffffffffff16606560009054906101000a900473ffffffffffffffffffffffffffffffffffffffff1673ffffffffffffffffffffffffffffffffffffffff16146114fc576040517f08c379a00000000000000000000000000000000000000000000000000000000081526004018080602001828103825260208152602001807f4f776e61626c653a2063616c6c6572206973206e6f7420746865206f776e657281525060200191505060405180910390fd5b600073ffffffffffffffffffffffffffffffffffffffff168173ffffffffffffffffffffffffffffffffffffffff161415611582576040517f08c379a0000000000000000000000000000000000000000000000000000000008152600401808060200182810382526026815260200180611a3e6026913960400191505060405180910390fd5b8073ffffffffffffffffffffffffffffffffffffffff16606560009054906101000a900473ffffffffffffffffffffffffffffffffffffffff1673ffffffffffffffffffffffffffffffffffffffff167f8be0079c531659141344cd1fd0a4f28419497f9722a3daafe3b4186f6b6457e060405160405180910390a380606560006101000a81548173ffffffffffffffffffffffffffffffffffffffff021916908373ffffffffffffffffffffffffffffffffffffffff16021790555050565b609a60009054906101000a900473ffffffffffffffffffffffffffffffffffffffff1681565b6000803090506000813b9050600081149250505090565b600060019054906101000a900460ff168061169e575061169d611668565b5b806116b557506000809054906101000a900460ff16155b61170a576040517f08c379a000000000000000000000000000000000000000000000000000000000815260040180806020018281038252602e815260200180611a93602e913960400191505060405180910390fd5b60008060019054906101000a900460ff16159050801561175a576001600060016101000a81548160ff02191690831515021790555060016000806101000a81548160ff0219169083151502179055505b611762611796565b61176a611895565b801561178b5760008060016101000a81548160ff0219169083151502179055505b50565b600033905090565b600060019054906101000a900460ff16806117b557506117b4611668565b5b806117cc57506000809054906101000a900460ff16155b611821576040517f08c379a000000000000000000000000000000000000000000000000000000000815260040180806020018281038252602e815260200180611a93602e913960400191505060405180910390fd5b60008060019054906101000a900460ff161590508015611871576001600060016101000a81548160ff02191690831515021790555060016000806101000a81548160ff0219169083151502179055505b80156118925760008060016101000a81548160ff0219169083151502179055505b50565b600060019054906101000a900460ff16806118b457506118b3611668565b5b806118cb57506000809054906101000a900460ff16155b611920576040517f08c379a000000000000000000000000000000000000000000000000000000000815260040180806020018281038252602e815260200180611a93602e913960400191505060405180910390fd5b60008060019054906101000a900460ff161590508015611970576001600060016101000a81548160ff02191690831515021790555060016000806101000a81548160ff0219169083151502179055505b600061197a61178e565b905080606560006101000a81548173ffffffffffffffffffffffffffffffffffffffff021916908373ffffffffffffffffffffffffffffffffffffffff1602179055508073ffffffffffffffffffffffffffffffffffffffff16600073ffffffffffffffffffffffffffffffffffffffff167f8be0079c531659141344cd1fd0a4f28419497f9722a3daafe3b4186f6b6457e060405160405180910390a3508015611a3a5760008060016101000a81548160ff0219169083151502179055505b5056fe4f776e61626c653a206e6577206f776e657220697320746865207a65726f2061646472657373416d6f756e7420746f2062652072656465656d65642073686f756c642062652067726561746572207468616e6b2030436f6e747261637420696e7374616e63652068617320616c7265616479206265656e20696e697469616c697a6564a2646970667358221220a56cbe35c0a4505f76ff56fffc3036757fd12a2004293a50f751787be7dfc94c64736f6c63430006020033",
  "source": "pragma solidity ^0.6.0;\r\n\r\nimport \"@openzeppelin/contracts-ethereum-package/contracts/Initializable.sol\";\r\nimport \"@openzeppelin/contracts-ethereum-package/contracts/access/Ownable.sol\";\r\nimport \"@openzeppelin/contracts-ethereum-package/contracts/math/SafeMath.sol\";\r\nimport \"@openzeppelin/contracts-ethereum-package/contracts/token/ERC20/IERC20.sol\";\r\n \r\n\r\ninterface PodInterface {\r\n     // Deposit \r\n     function deposit(uint256 amount, bytes calldata data) external;\r\n\r\n     // Borrow\r\n     function redeem(uint256 amount, bytes calldata data) external;\r\n     \r\n     // Balance Of underlyingAsset\r\n     function balanceOfUnderlying(address user) external view returns (uint256);\r\n}\r\n\r\ncontract Helper {\r\n     /**\r\n     * @dev get Lending Pool uniswap market ropsten address\r\n     */\r\n    function getPod() public pure returns (address pod) {\r\n        pod = 0x395fcB67ff8fdf5b9e2AeeCc02Ef7A8DE87a6677;\r\n    }\r\n}\r\n\r\n/**\r\n * @dev ATOKEN Interface.\r\n */\r\ninterface AToken {\r\n    function balanceOf(address account) external view returns (uint256);\r\n\r\n    function redeem(uint256 _amount) external;\r\n}\r\n\r\ncontract AavePool is Helper, Initializable, OwnableUpgradeSafe {\r\n    \r\n    using SafeMath for uint256;\r\n    address public aToken = 0x4F96Fe3b7A6Cf9725f59d353F723c1bDb64CA6Aa;\r\n    address public lendingPool = 0x4F96Fe3b7A6Cf9725f59d353F723c1bDb64CA6Aa;\r\n    address public underlyingAsset= 0x4F96Fe3b7A6Cf9725f59d353F723c1bDb64CA6Aa;\r\n\t\r\n\taddress public admin;\r\n\tuint256 public version;\r\n\t\r\n\tevent Initialized(address indexed thisAddress);\r\n\r\n    function initialize(address _recipient, address _admin) public initializer {\r\n    emit Initialized(address(this));\r\n\tOwnableUpgradeSafe.__Ownable_init();\r\n    OwnableUpgradeSafe.transferOwnership(_recipient);\r\n\tadmin = _admin;\r\n\tversion = 1;\r\n    }\r\n\t\t  \r\n    /**\r\n     * @dev Invest in Pod throough your atokens\r\n     */\r\n    function invest() public returns(bool)\r\n        {\r\n          // Calling Redeem in Mock AToken\r\n          IERC20(lendingPool).approve(aToken, IERC20(lendingPool).balanceOf(address(this)));\r\n          AToken(aToken).redeem(IERC20(lendingPool).balanceOf(address(this)));\r\n\r\n          // Bytes Payload for deposit\r\n          bytes memory _data = bytes(\"Depositing to Pod\");\r\n          \r\n          // Approve Pod\r\n          IERC20(underlyingAsset).approve(getPod(), IERC20(underlyingAsset).balanceOf(address(this)));\r\n          \r\n          // Deposit in Pod\r\n          PodInterface(getPod()).deposit(IERC20(underlyingAsset).balanceOf(address(this)), _data);\r\n\r\n          return true;\r\n        }\r\n\r\n    function redeem() public onlyOwner returns(bool)\r\n    {\r\n        // Getting Underlying Balance from the Pod\r\n        uint256 underlyingBalance = PodInterface(getPod()).balanceOfUnderlying(msg.sender);\r\n        \r\n        require(underlyingBalance != 0, \"Amount to be redeemed should be greater thank 0\");\r\n        IERC20(underlyingAsset).approve(getPod(), underlyingBalance);\r\n        \r\n        // Redeeming Underlying Asset for Pod Shares\r\n        bytes memory _data = bytes(\"Redeeming from Pod\");\r\n\r\n        PodInterface(getPod()).redeem(underlyingBalance, _data);\r\n        \r\n        // Getting total Balance of Underlying Asset(Pod share + interest)\r\n        uint256 underlyingBalanceInPod = IERC20(underlyingAsset).balanceOf(address(this));\r\n\r\n        // Trnasfer to user\r\n        IERC20(underlyingAsset).transfer(msg.sender, underlyingBalanceInPod);\r\n\r\n        return true;\r\n    }\r\n}\r\n\r\n\r\n",
  "sourcePath": "C:\\Users\\lazypuppet\\ethereum\\snaketh4x0r\\AAVE-Pool-Together\\ethereum\\contracts\\intermediate.sol",
  "compiler": {
    "name": "solc",
    "version": "0.6.2+commit.bacdbe57.Emscripten.clang"
  },
  "schemaVersion": "3.1.0",
  "updatedAt": "2020-05-26T17:29:48.018Z",
  "devdoc": {
    "methods": {
      "getPod()": {
        "details": "get Lending Pool uniswap market ropsten address"
      },
      "invest()": {
        "details": "Invest in Pod throough your atokens"
      },
      "owner()": {
        "details": "Returns the address of the current owner."
      },
      "renounceOwnership()": {
        "details": "Leaves the contract without owner. It will not be possible to call `onlyOwner` functions anymore. Can only be called by the current owner.     * NOTE: Renouncing ownership will leave the contract without an owner, thereby removing any functionality that is only available to the owner."
      },
      "transferOwnership(address)": {
        "details": "Transfers ownership of the contract to a new account (`newOwner`). Can only be called by the current owner."
      }
    }
  },
  "userdoc": {
    "methods": {}
  }
}